:020000040000fa
:080000000002040000000000f2
:020000040000fa
:04000800f003000001
:020000040000fa
:04000c00f0030000fd
:020000040000fa
:04001000f0030000f9
:020000040000fa
:04001400f0030000f5
:020000040000fa
:04001800f0030000f1
:020000040000fa
:04001c00f0030000ed
:020000040000fa
:04002000f0030000e9
:020000040000fa
:04002400f0030000e5
:020000040000fa
:04002800f0030000e1
:020000040000fa
:04002c00ea020000e4
:020000040000fa
:04003000f0030000d9
:020000040000fa
:04003400e8030000dd
:020000040000fa
:04003800f0030000d1
:020000040000fa
:04003c006c03000051
:020000040000fa
:04004000f0030000c9
:020000040000fa
:04004400f0030000c5
:020000040000fa
:04004800f0030000c1
:020000040000fa
:04004c00f0030000bd
:020000040000fa
:04005000f0030000b9
:020000040000fa
:04005400f0030000b5
:020000040000fa
:04005800f0030000b1
:020000040000fa
:04005c00c8020000d6
:020000040000fa
:04006000f0030000a9
:020000040000fa
:04006400f0030000a5
:020000040000fa
:04006800f0030000a1
:020000040000fa
:04006c00f00300009d
:020000040000fa
:04007000f003000099
:020000040000fa
:04007400f003000095
:020000040000fa
:04007800f003000091
:020000040000fa
:04007c00f00300008d
:020000040000fa
:04008000aa030000cf
:020000040000fa
:04008400f003000085
:020000040000fa
:04008800f003000081
:020000040000fa
:04008c00f00300007d
:020000040000fa
:04009000f003000079
:020000040000fa
:04009400f003000075
:020000040000fa
:04009800f003000071
:020000040000fa
:04009c00f00300006d
:020000040000fa
:0400a000f003000069
:020000040000fa
:0400a400f003000065
:020000040000fa
:0400a800f003000061
:020000040000fa
:0400ac00f00300005d
:020000040000fa
:0400b000f003000059
:020000040000fa
:0400b400f003000055
:020000040000fa
:0400b800f003000051
:020000040000fa
:0400bc00f00300004d
:020000040000fa
:0400c000f003000049
:020000040000fa
:0400c400f003000045
:020000040000fa
:0400c800f003000041
:020000040000fa
:0400cc00f00300003d
:020000040000fa
:0400d000f003000039
:020000040000fa
:0400d400f003000035
:020000040000fa
:0400d800f003000031
:020000040000fa
:0400dc00f00300002d
:020000040000fa
:0400e000f003000029
:020000040000fa
:0400e400f003000025
:020000040000fa
:0400e800f003000021
:020000040000fa
:0400ec00f00300001d
:020000040000fa
:0400f000f003000019
:020000040000fa
:0400f400f003000015
:020000040000fa
:0400f800f003000011
:020000040000fa
:0400fc00f00300000d
:020000040000fa
:04010000f003000008
:020000040000fa
:04010400f003000004
:020000040000fa
:04010800f003000000
:020000040000fa
:04010c00f0030000fc
:020000040000fa
:04011000f0030000f8
:020000040000fa
:04011400f0030000f4
:020000040000fa
:04011800f0030000f0
:020000040000fa
:04011c00f0030000ec
:020000040000fa
:04012000f0030000e8
:020000040000fa
:04012400f0030000e4
:020000040000fa
:04012800f0030000e0
:020000040000fa
:04012c00f0030000dc
:020000040000fa
:04013000f0030000d8
:020000040000fa
:04013400f0030000d4
:020000040000fa
:04013800f0030000d0
:020000040000fa
:04013c00f0030000cc
:020000040000fa
:04014000f0030000c8
:020000040000fa
:04014400f0030000c4
:020000040000fa
:04014800f0030000c0
:020000040000fa
:04014c00f0030000bc
:020000040000fa
:04015000f0030000b8
:020000040000fa
:04015400f0030000b4
:020000040000fa
:04015800f0030000b0
:020000040000fa
:04015c00f0030000ac
:020000040000fa
:04016000f0030000a8
:020000040000fa
:04016400f0030000a4
:020000040000fa
:04020800f0030000ff
:020000040000fa
:04020c00f0030000fb
:020000040000fa
:04021000f0030000f7
:020000040000fa
:04021400f0030000f3
:020000040000fa
:04021800f0030000ef
:020000040000fa
:04021c00f0030000eb
:020000040000fa
:04022000f0030000e7
:020000040000fa
:04022400f0030000e3
:020000040000fa
:04022800f0030000df
:020000040000fa
:04022c00f0030000db
:020000040000fa
:04023000f0030000d7
:020000040000fa
:04023400f0030000d3
:020000040000fa
:04023800f0030000cf
:020000040000fa
:04023c00f0030000cb
:020000040000fa
:04024000f0030000c7
:020000040000fa
:04024400f0030000c3
:020000040000fa
:04024800f0030000bf
:020000040000fa
:04024c00f0030000bb
:020000040000fa
:04025000f0030000b7
:020000040000fa
:04025400f0030000b3
:020000040000fa
:04025800f0030000af
:020000040000fa
:04025c00f0030000ab
:020000040000fa
:04026000f0030000a7
:020000040000fa
:04026400f0030000a3
:020000040000fa
:04026800f00300009f
:020000040000fa
:04026c00f00300009b
:020000040000fa
:04027000f003000097
:020000040000fa
:04027400f003000093
:020000040000fa
:04027800f00300008f
:020000040000fa
:04027c00f00300008b
:020000040000fa
:04028000f003000087
:020000040000fa
:04028400f003000083
:020000040000fa
:04028800f00300007f
:020000040000fa
:04028c00f00300007b
:020000040000fa
:04029000f003000077
:020000040000fa
:04029400f003000073
:020000040000fa
:04029800f00300006f
:020000040000fa
:04029c00f00300006b
:020000040000fa
:0402a000f003000067
:020000040000fa
:0402a400f003000063
:020000040000fa
:0402a800f00300005f
:020000040000fa
:0402ac00f00300005b
:020000040000fa
:0402b000f003000057
:020000040000fa
:0402b400f003000053
:020000040000fa
:0402b800f00300004f
:020000040000fa
:0402bc00f00300004b
:020000040000fa
:0402c000f003000047
:020000040000fa
:0402c400f003000043
:020000040000fa
:0402c800f00300003f
:020000040000fa
:0402cc00f00300003b
:020000040000fa
:0402d000f003000037
:020000040000fa
:0402d400f003000033
:020000040000fa
:0402d800f00300002f
:020000040000fa
:0402dc00f00300002b
:020000040000fa
:0402e000f003000027
:020000040000fa
:0402e400f003000023
:020000040000fa
:0402e800f00300001f
:020000040000fa
:0402ec00f00300001b
:020000040000fa
:0402f000f003000017
:020000040000fa
:0402f400f003000013
:020000040000fa
:0402f800f00300000f
:020000040000fa
:0402fc00f00300000b
:020000040000fa
:04030000f003000006
:020000040000fa
:04030400f003000002
:020000040000fa
:04030800f0030000fe
:020000040000fa
:04030c00f0030000fa
:020000040000fa
:04031000f0030000f6
:020000040000fa
:04031400f0030000f2
:020000040000fa
:04031800f0030000ee
:020000040000fa
:04031c00f0030000ea
:020000040000fa
:04032000f0030000e6
:020000040000fa
:04032400f0030000e2
:020000040000fa
:04032800f0030000de
:020000040000fa
:04032c00f0030000da
:020000040000fa
:04033000f0030000d6
:020000040000fa
:04033400f0030000d2
:020000040000fa
:04033800f0030000ce
:020000040000fa
:04033c00f0030000ca
:020000040000fa
:04034000f0030000c6
:020000040000fa
:04034400f0030000c2
:020000040000fa
:04034800f0030000be
:020000040000fa
:04034c00f0030000ba
:020000040000fa
:04035000f0030000b6
:020000040000fa
:04035400f0030000b2
:020000040000fa
:04035800f0030000ae
:020000040000fa
:04035c00f0030000aa
:020000040000fa
:04036000f0030000a6
:020000040000fa
:04036400f0030000a2
:020000040000fa
:100400000f8520000e7f24000e01880000000000f0
:10041000000020000000e000020032000001200087
:100420002002880014000700ef0007000000e00031
:1004300003003a00005e20000100200002003700a7
:100440000000200001002000810f70000100320038
:1004500014000700000020000000e000020032004d
:100460000000020000000000f6030200000000008f
:100470000040da000000fe004440a9000000200017
:100480000000e0000300320000002000a00188000e
:100490004440a800000006008a1f78008b1f7800e7
:1004a0000000060091018800800478000000eb0045
:1004b0001a003700e284440032a0b4009905ba0063
:1004c000e284440032a0b4009906ba00e2844400f9
:1004d00032a0b4000006eb00476fde00fd07b2005b
:1004e000636ce10003003a00ebff07000000eb0043
:1004f0000a003700606ce10004003a00005deb0088
:100500008b05e900fdff3e00040037006168e10053
:10051000010032000086eb000b00070019c7ba008b
:100520001905ba000e04e00003003a000a00e000da
:10053000e0ff3a0000000600fe07b2009e018800be
:100540008a047800f5ff3700395dba008b05e900b1
:100550000c003200295dba008b05e900080032006a
:100560000c00e00003003a00e284440032a0b40032
:10057000f5ff370019ddba008b05e900faff3a00f4
:100580008904e800e184440032a0b40000000600c1
:10059000801f78000000fa00b04080006100600019
:1005a0000000e00007003200001880000000d100c9
:1005b000b00e8800b00e8000c00e8800b00e800023
:1005c000d00e880085a0a9000080fa004f007800b6
:1005d00000400600809fbe00829fbe000200fa001d
:1005e0008420a900501680008000d100001c20004b
:1005f00000806000c0408800c04080004600de00ef
:10060000c0408800b0408000620060000000e00050
:1006100009003200c040800080004000a08220001d
:100620000080400010007800a00e880050002000dc
:10063000000f780008003700c040800080004000b4
:10064000a08320000080400010007800a00e8800e9
:1006500040002000000f78009e007800c04080001d
:10066000808f500018003a00e1812000914078000e
:100670000140780060c0b2000080fb000000e9008b
:100680004f00de00004078008140e80081417800a2
:10069000e2812000034978000004e0000a003200f3
:1006a00050088000d04088000a21ef00e14080001f
:1006b000d0408000008040000000d100e040880071
:1006c00010c0b3001ee8b7000080fa004f01be0062
:1006d0004f00be0000400600809fbe000000fa00f0
:1006e00084a0a900501680008000d100001c2000ca
:1006f00000806000c0408800c04080004600de00ee
:10070000c0408800b0408000620060000000e0004f
:1007100007003200c040800080004000a08220001e
:100720000080400010007800a00e8800060037000e
:10073000c040800080004000a08320000080400076
:1007400010007800a00e88000080fa004f00be0064
:1007500000400600809fbe000000fa0086c0a9008d
:10076000501680008000d100001c20000080600036
:10077000c0408800c04080004600de00c0408800c5
:10078000b0408000620060000000e000070032001e
:10079000c040800080004000a08220000080400017
:1007a00010007800a00e880006003700c0408000ce
:1007b00080004000a08320000080400010007800ee
:1007c000a00e88000080fa004f00be000040060026
:1007d0000000fa008460a9000080fa0000400600d2
:0c07e0000040da000000fe0000000500f0
:020000040000fa
:1007ec000200fa00413a800000fc2f0000806000fb
:1007fc003001b300403a8800313a800000e02f000d
:10080c00008060000030a000303a8800213a80005f
:10081c00f0f32f0000806000203a8800213a80001d
:10082c0000fe2f0000806000203a88000016800037
:10083c003000b30000168800401680004016880077
:10084c007a0007007134800000fe2f0000806000e9
:10085c007000b3007034880071348000f00f2e00eb
:10086c000080600000b0a00070348800a1348000cb
:10087c0000fe2f00008060009000b300a0348800c0
:10088c006100070072000700bf000700b6000700f8
:10089c001c28ef0080000700a00007001628a80005
:1008ac000000eb00000f7800010037001e0fe8007d
:1008bc00703e20009e007800808f5000fbff3600b9
:1008cc00010037000000000010168000620060007c
:1008dc000000e000fbff3a000500370050168000d6
:1008ec008000d100001c200000806000c040880007
:1008fc0010168000620060000000e000f7ff32007c
:10090c00c04080004600de00c0408800b04080003f
:10091c00620060000000e00007003200c040800070
:10092c0080004000a0822000008040001000780071
:10093c00a00e880006003700c040800080004000f8
:10094c00a08320000080400010007800a00e8800da
:10095c0070772000400e88001608a80013e1a8004c
:10096c0010c0b3001ee8b700090037001016800055
:10097c00620060000000e00004003a0000702000fb
:10098c00400e8800d421ef001608a90000000000da
:10099c00b0408000610060000000e000f3ff3a000e
:1009ac0000000000c8ff37000400fa001007980090
:1009bc00080037000000eb00000f78000100370042
:1009cc001e0fe800301f20009e007800808f500022
:1009dc00fbff36001e00900000f0a7000000ea00ac
:1009ec000000ea004f00de00004078009e009000fe
:1009fc008100e900110798000004e000edff3a00c7
:100a0c000080fa00000006000000fa0021742000ab
:100a1c006204200073052000824878008348780027
:100a2c0042c7a8000080fa00000006000000fa008f
:100a3c002174200062042000730520008248780095
:100a4c008348780042c7a9000080fa000000060025
:100a5c000000fa000080eb00601988002ca3a900ac
:100a6c00c0062000001988002143a9002223ef00b2
:100a7c00f0322000201988003023ef0050002000b5
:100a8c004019880085a0a90095a0a80021e3a80022
:100a9c000080fa00000006000000fa00f00f2000b1
:100aac00200e8800c901a900c921a900c941a900cb
:100abc00610e800000f0230001007000600e8800c1
:100acc00610e800000002c0001007000600e880098
:100adc00f00f2000700e880000702000400e88007f
:100aec00d421ef0040062000b00e88004006200004
:100afc00c00e880040062000d00e8800200e80001a
:100b0c00300e880000f02000500e880000002800f5
:100b1c00000e88000080fa00000006000000fa00b9
:100b2c0041168000001c2000010070004016880057
:100b3c0010002000100a880010002000300a8800e5
:100b4c0010002000d00a88008420a90084a0a900ed
:100b5c0086c0a9009420a80094a0a80096c0a80064
:100b6c000080fa00000006000000fa0000032000dc
:100b7c00900888000a21ef000080eb0070088800c4
:100b8c000080fa00000006000000fa0000022800b5
:100b9c00200888000021ef00c00920001008880000
:100bac0005e1a8008460a9009460a8000080fa0008
:040bbc00000006002f
:020000040000fa
:100bc0002a080000200000000200000000001000c1
:100bd00002042000040201000810080001200000a7
:100be00000000000012010000801080004020400b9
:100bf00020100200000000004a080000060000006b
:100c000000000000160800001000000000000000b6
:100c10000008000016000000000000002608000088
:100c20000400000002000000204ed0000700000079
:040c300000000000c0
:020000040000fa
:0200000401f009
:04000000ffff0000fe
:020000040000fa
:0200000401f009
:04000400ffff0000fa
:020000040000fa
:0200000401f009
:04000800ffff0000f6
:020000040000fa
:0200000401f009
:04000c0001000000ef
:020000040000fa
:0200000401f009
:040010006700000085
:020000040000fa
:0200000401f009
:040014005f00000089
:020000040000fa
:0200000401f009
:04001800f7000000ed
:020000040000fa
:0200000401f009
:04001c00ddff000004
:00000001FF
