:020000040000fa
:080000000002040000000000f2
:020000040000fa
:100400006f8120000e7f24000e0188000000000094
:100410000c000700a036200001002000110007009a
:10042000000020000000e000020032000000020096
:1004300000000000d8020200000000000040da00c6
:100440000000fe004440a900000020000000e00081
:100450000300320000002000a00188004440a800f2
:100460000000060091018800800078000000eb0089
:1004700015003700e280400032a0b4009101ba00bc
:10048000e280400032a0b4009102ba00e280400055
:1004900032a0b4000002eb00472bde00f507b200eb
:1004a000602ce10004003a000059eb008301e900f0
:1004b000fdff3e00040037006128e100010032002a
:1004c0000082eb00040007001101ba000200e00006
:1004d000e8ff3a00000006003159ba008301e90044
:1004e0000c0032002159ba008301e90008003200f3
:1004f0000400e00003003a00e280400032a0b400b3
:10050000f5ff370011d9ba008301e900faff3a007c
:100510008100e800e180400032a0b4000000060045
:080520000040da000000fe00bb
:020000040000fa
:0200000401f009
:04000c0079ff000078
:020000040000fa
:0200000401f009
:040010005bff000092
:020000040000fa
:0200000401f009
:040014007fff00006a
:020000040000fa
:1000080090020000900200009002000090020000a0
:100018009002000090020000900200009002000090
:10002800900200009002000090020000ba02000056
:100038009002000090020000900200009002000070
:100048009002000090020000900200009002000060
:100058009002000090020000900200009002000050
:100068009002000090020000900200009002000040
:100078009002000090020000900200009002000030
:100088009002000090020000900200009002000020
:100098009002000090020000900200009002000010
:1000a8009002000090020000900200009002000000
:1000b80090020000900200009002000090020000f0
:1000c80090020000900200009002000090020000e0
:1000d80090020000900200009002000090020000d0
:1000e80090020000900200009002000090020000c0
:1000f80090020000900200009002000090020000b0
:10010800900200009002000090020000900200009f
:10011800900200009002000090020000900200008f
:10012800900200009002000090020000900200007f
:10013800900200009002000090020000900200006f
:10014800900200009002000090020000900200005f
:10015800900200009002000090020000900200004f
:10016800900200009002000090020000900200003f
:10017800900200009002000090020000900200002f
:10018800900200009002000090020000900200001f
:10019800900200009002000090020000900200000f
:1001a80090020000900200009002000090020000ff
:1001b80090020000900200009002000090020000ef
:1001c80090020000900200009002000090020000df
:1001d80090020000900200009002000090020000cf
:1001e80090020000900200009002000090020000bf
:0801f8009002000090020000db
:020000040000fa
:10020800900200009002000090020000900200009e
:10021800900200009002000090020000900200008e
:10022800900200009002000090020000ba02000054
:10023800900200009002000090020000900200006e
:10024800900200009002000090020000900200005e
:10025800900200009002000090020000900200004e
:10026800900200009002000090020000900200003e
:10027800900200009002000090020000900200002e
:10028800900200009002000090020000900200001e
:10029800900200009002000090020000900200000e
:1002a80090020000900200009002000090020000fe
:1002b80090020000900200009002000090020000ee
:1002c80090020000900200009002000090020000de
:1002d80090020000900200009002000090020000ce
:1002e80090020000900200009002000090020000be
:1002f80090020000900200009002000090020000ae
:10030800900200009002000090020000900200009d
:10031800900200009002000090020000900200008d
:10032800900200009002000090020000900200007d
:10033800900200009002000090020000900200006d
:10034800900200009002000090020000900200005d
:10035800900200009002000090020000900200004d
:10036800900200009002000090020000900200003d
:10037800900200009002000090020000900200002d
:10038800900200009002000090020000900200001d
:10039800900200009002000090020000900200000d
:1003a80090020000900200009002000090020000fd
:1003b80090020000900200009002000090020000ed
:1003c80090020000900200009002000090020000dd
:1003d80090020000900200009002000090020000cd
:1003e80090020000900200009002000090020000bd
:0803f8009002000090020000d9
:020000040000fa
:100528000000fa000000eb00200888008460a900a1
:10053800510a200091407800f0c8b30000c0600064
:1005480001c4b30001407000a5e0b7009460a800a2
:10055800400620001008880004a1a9000421a90071
:1005680005e1a8000080fa0000000600801f78005e
:100578003400f80000002000a00188000000fa0004
:100588001000200000408800104080000000e800b3
:10059800104088008460a9000080fa003400f90047
:1005a8004f007800004006000000fa0044c7bf0072
:1005b800f043b20001c4b3000140700044e7b70043
:1005c80000382000401688000080eb006019880081
:1005d800d3ff07001800070000712200200e8800d2
:1005e80020032000b00e880020032000c00e8800e1
:1005f80020032000d00e880020408000a00e880034
:10060800511680000038200000806000a04088005b
:10061800a04080004700de00a0408800a040800085
:1006280080004000408020000080400010007800da
:10063800a00e8800f2ff37000000fa00c0c1bf001a
:100648006f406000c0e1b700011c200091407800b5
:1006580030cfb30000c06000c0e1b700011c20002b
:1006680091407800c0cfb30000c060000014a00023
:10067800c0e1b70000fa2000200e8800c801a800d9
:10068800c881a800c821a800c8a1a800c841a8001e
:10069800c8c1a800c901a900c921a900c941a90068
:1006a80040062000b00e880040062000c00e8800da
:1006b80040062000d00e88000000eb00a00e880045
:0c06c800c1e1a8000080fa00000006005c
:020000040000fa
:1006d40000080000140000000200000000000000f8
:1006e40000000000100201000810080004200400ab
:1006f40002012000000000001408000002000000b5
:080704000000000000000000ed
:020000040000fa
:10070c000000fa0010002000100a88008420a900c4
:10071c0010002000300a880084a0a9000080fa0094
:04072c0000000600c3
:00000001FF
